{
  "_format": "hh-sol-artifact-1",
  "contractName": "Poll",
  "sourceName": "contracts/PollContract.sol",
  "abi": [
    {
      "inputs": [],
      "stateMutability": "nonpayable",
      "type": "constructor"
    },
    {
      "inputs": [
        {
          "internalType": "uint256",
          "name": "_i",
          "type": "uint256"
        }
      ],
      "name": "getPollItem",
      "outputs": [
        {
          "internalType": "string",
          "name": "",
          "type": "string"
        }
      ],
      "stateMutability": "view",
      "type": "function"
    },
    {
      "inputs": [],
      "name": "getPollItemLength",
      "outputs": [
        {
          "internalType": "uint256",
          "name": "",
          "type": "uint256"
        }
      ],
      "stateMutability": "view",
      "type": "function"
    },
    {
      "inputs": [
        {
          "internalType": "uint256",
          "name": "_i",
          "type": "uint256"
        }
      ],
      "name": "getPollItemVotes",
      "outputs": [
        {
          "internalType": "uint256",
          "name": "",
          "type": "uint256"
        }
      ],
      "stateMutability": "view",
      "type": "function"
    },
    {
      "inputs": [
        {
          "internalType": "string",
          "name": "_item",
          "type": "string"
        }
      ],
      "name": "includePollItem",
      "outputs": [],
      "stateMutability": "nonpayable",
      "type": "function"
    },
    {
      "inputs": [],
      "name": "pollName",
      "outputs": [
        {
          "internalType": "string",
          "name": "",
          "type": "string"
        }
      ],
      "stateMutability": "view",
      "type": "function"
    },
    {
      "inputs": [],
      "name": "pollOwner",
      "outputs": [
        {
          "internalType": "address",
          "name": "",
          "type": "address"
        }
      ],
      "stateMutability": "view",
      "type": "function"
    },
    {
      "inputs": [
        {
          "internalType": "string",
          "name": "_name",
          "type": "string"
        }
      ],
      "name": "setPollName",
      "outputs": [],
      "stateMutability": "nonpayable",
      "type": "function"
    },
    {
      "inputs": [
        {
          "internalType": "string",
          "name": "_item",
          "type": "string"
        }
      ],
      "name": "voteItem",
      "outputs": [],
      "stateMutability": "payable",
      "type": "function"
    }
  ],
  "bytecode": "0x608060405234801561001057600080fd5b50336000806101000a81548173ffffffffffffffffffffffffffffffffffffffff021916908373ffffffffffffffffffffffffffffffffffffffff1602179055506110e5806100606000396000f3fe60806040526004361061007b5760003560e01c8063662016381161004e578063662016381461013c5780636d76de7c14610158578063ab8b8cc014610181578063f65ffee7146101be5761007b565b8063187697651461008057806325653400146100ab578063285ad937146100e857806364d3f69c14610113575b600080fd5b34801561008c57600080fd5b506100956101e9565b6040516100a29190610dbc565b60405180910390f35b3480156100b757600080fd5b506100d260048036038101906100cd9190610bb3565b610277565b6040516100df9190610e5e565b60405180910390f35b3480156100f457600080fd5b506100fd6102c5565b60405161010a9190610da1565b60405180910390f35b34801561011f57600080fd5b5061013a60048036038101906101359190610b72565b6102e9565b005b61015660048036038101906101519190610b72565b610391565b005b34801561016457600080fd5b5061017f600480360381019061017a9190610b72565b6105e2565b005b34801561018d57600080fd5b506101a860048036038101906101a39190610bb3565b610722565b6040516101b59190610dbc565b60405180910390f35b3480156101ca57600080fd5b506101d36107f8565b6040516101e09190610e5e565b60405180910390f35b600180546101f690610f7f565b80601f016020809104026020016040519081016040528092919081815260200182805461022290610f7f565b801561026f5780601f106102445761010080835404028352916020019161026f565b820191906000526020600020905b81548152906001019060200180831161025257829003601f168201915b505050505081565b6000600382815481106102b3577f4e487b7100000000000000000000000000000000000000000000000000000000600052603260045260246000fd5b90600052602060002001549050919050565b60008054906101000a900473ffffffffffffffffffffffffffffffffffffffff1681565b60008054906101000a900473ffffffffffffffffffffffffffffffffffffffff1673ffffffffffffffffffffffffffffffffffffffff163373ffffffffffffffffffffffffffffffffffffffff1614610377576040517f08c379a000000000000000000000000000000000000000000000000000000000815260040161036e90610dfe565b60405180910390fd5b806001908051906020019061038d929190610a52565b5050565b61039a33610805565b156103da576040517f08c379a00000000000000000000000000000000000000000000000000000000081526004016103d190610e3e565b60405180910390fd5b6103e3816108d6565b610422576040517f08c379a000000000000000000000000000000000000000000000000000000000815260040161041990610dde565b60405180910390fd5b60005b60028054905081101561057b576105086002828154811061046f577f4e487b7100000000000000000000000000000000000000000000000000000000600052603260045260246000fd5b90600052602060002001805461048490610f7f565b80601f01602080910402602001604051908101604052809291908181526020018280546104b090610f7f565b80156104fd5780601f106104d2576101008083540402835291602001916104fd565b820191906000526020600020905b8154815290600101906020018083116104e057829003601f168201915b5050505050836109f9565b156105685760038181548110610547577f4e487b7100000000000000000000000000000000000000000000000000000000600052603260045260246000fd5b90600052602060002001600081548092919061056290610fb1565b91905055505b808061057390610fb1565b915050610425565b506004339080600181540180825580915050600190039060005260206000200160009091909190916101000a81548173ffffffffffffffffffffffffffffffffffffffff021916908373ffffffffffffffffffffffffffffffffffffffff16021790555050565b60008054906101000a900473ffffffffffffffffffffffffffffffffffffffff1673ffffffffffffffffffffffffffffffffffffffff163373ffffffffffffffffffffffffffffffffffffffff1614610670576040517f08c379a000000000000000000000000000000000000000000000000000000000815260040161066790610dfe565b60405180910390fd5b610679816108d6565b156106b9576040517f08c379a00000000000000000000000000000000000000000000000000000000081526004016106b090610e1e565b60405180910390fd5b6002819080600181540180825580915050600190039060005260206000200160009091909190915090805190602001906106f4929190610a52565b5060036000908060018154018082558091505060019003906000526020600020016000909190919091505550565b60606002828154811061075e577f4e487b7100000000000000000000000000000000000000000000000000000000600052603260045260246000fd5b90600052602060002001805461077390610f7f565b80601f016020809104026020016040519081016040528092919081815260200182805461079f90610f7f565b80156107ec5780601f106107c1576101008083540402835291602001916107ec565b820191906000526020600020905b8154815290600101906020018083116107cf57829003601f168201915b50505050509050919050565b6000600280549050905090565b6000805b6004805490508110156108cb578273ffffffffffffffffffffffffffffffffffffffff1660048281548110610867577f4e487b7100000000000000000000000000000000000000000000000000000000600052603260045260246000fd5b9060005260206000200160009054906101000a900473ffffffffffffffffffffffffffffffffffffffff1673ffffffffffffffffffffffffffffffffffffffff1614156108b85760019150506108d1565b80806108c390610fb1565b915050610809565b50600090505b919050565b60008060028054905011156109ef5760005b6002805490508110156109ed576109cb60028281548110610932577f4e487b7100000000000000000000000000000000000000000000000000000000600052603260045260246000fd5b90600052602060002001805461094790610f7f565b80601f016020809104026020016040519081016040528092919081815260200182805461097390610f7f565b80156109c05780601f10610995576101008083540402835291602001916109c0565b820191906000526020600020905b8154815290600101906020018083116109a357829003601f168201915b5050505050846109f9565b156109da5760019150506109f4565b80806109e590610fb1565b9150506108e8565b505b600090505b919050565b600081604051602001610a0c9190610d8a565b6040516020818303038152906040528051906020012083604051602001610a339190610d8a565b6040516020818303038152906040528051906020012014905092915050565b828054610a5e90610f7f565b90600052602060002090601f016020900481019282610a805760008555610ac7565b82601f10610a9957805160ff1916838001178555610ac7565b82800160010185558215610ac7579182015b82811115610ac6578251825591602001919060010190610aab565b5b509050610ad49190610ad8565b5090565b5b80821115610af1576000816000905550600101610ad9565b5090565b6000610b08610b0384610eaa565b610e79565b905082815260208101848484011115610b2057600080fd5b610b2b848285610f3d565b509392505050565b600082601f830112610b4457600080fd5b8135610b54848260208601610af5565b91505092915050565b600081359050610b6c81611098565b92915050565b600060208284031215610b8457600080fd5b600082013567ffffffffffffffff811115610b9e57600080fd5b610baa84828501610b33565b91505092915050565b600060208284031215610bc557600080fd5b6000610bd384828501610b5d565b91505092915050565b610be581610f01565b82525050565b6000610bf682610eda565b610c008185610ee5565b9350610c10818560208601610f4c565b610c1981611087565b840191505092915050565b6000610c2f82610eda565b610c398185610ef6565b9350610c49818560208601610f4c565b80840191505092915050565b6000610c62601483610ee5565b91507f6974656d206e6f7420696e2074686520706f6c6c0000000000000000000000006000830152602082019050919050565b6000610ca2603683610ee5565b91507f596f75206d75737420626520746865206f776e6572206f662074686520706f6c60008301527f6c20746f20696e7365727420706f6c6c206974656e73000000000000000000006020830152604082019050919050565b6000610d08601883610ee5565b91507f6974656d20616c726561647920696e2074686520706f6c6c00000000000000006000830152602082019050919050565b6000610d48601583610ee5565b91507f6164647265737320616c726561647920766f74656400000000000000000000006000830152602082019050919050565b610d8481610f33565b82525050565b6000610d968284610c24565b915081905092915050565b6000602082019050610db66000830184610bdc565b92915050565b60006020820190508181036000830152610dd68184610beb565b905092915050565b60006020820190508181036000830152610df781610c55565b9050919050565b60006020820190508181036000830152610e1781610c95565b9050919050565b60006020820190508181036000830152610e3781610cfb565b9050919050565b60006020820190508181036000830152610e5781610d3b565b9050919050565b6000602082019050610e736000830184610d7b565b92915050565b6000604051905081810181811067ffffffffffffffff82111715610ea057610e9f611058565b5b8060405250919050565b600067ffffffffffffffff821115610ec557610ec4611058565b5b601f19601f8301169050602081019050919050565b600081519050919050565b600082825260208201905092915050565b600081905092915050565b6000610f0c82610f13565b9050919050565b600073ffffffffffffffffffffffffffffffffffffffff82169050919050565b6000819050919050565b82818337600083830152505050565b60005b83811015610f6a578082015181840152602081019050610f4f565b83811115610f79576000848401525b50505050565b60006002820490506001821680610f9757607f821691505b60208210811415610fab57610faa611029565b5b50919050565b6000610fbc82610f33565b91507fffffffffffffffffffffffffffffffffffffffffffffffffffffffffffffffff821415610fef57610fee610ffa565b5b600182019050919050565b7f4e487b7100000000000000000000000000000000000000000000000000000000600052601160045260246000fd5b7f4e487b7100000000000000000000000000000000000000000000000000000000600052602260045260246000fd5b7f4e487b7100000000000000000000000000000000000000000000000000000000600052604160045260246000fd5b6000601f19601f8301169050919050565b6110a181610f33565b81146110ac57600080fd5b5056fea2646970667358221220557f498acdd5561632fb680dcdd48a276e4d8d7ca72e1a0e2f7fca17f50c2a9c64736f6c63430008000033",
  "linkReferences": {},
  "deployedLinkReferences": {}
}